{
  "contractName": "BoredPetsNFT",
  "abi": [
    {
      "inputs": [
        {
          "internalType": "address",
          "name": "_marketplaceContract",
          "type": "address"
        }
      ],
      "stateMutability": "nonpayable",
      "type": "constructor"
    },
    {
      "anonymous": false,
      "inputs": [
        {
          "indexed": true,
          "internalType": "address",
          "name": "owner",
          "type": "address"
        },
        {
          "indexed": true,
          "internalType": "address",
          "name": "approved",
          "type": "address"
        },
        {
          "indexed": true,
          "internalType": "uint256",
          "name": "tokenId",
          "type": "uint256"
        }
      ],
      "name": "Approval",
      "type": "event"
    },
    {
      "anonymous": false,
      "inputs": [
        {
          "indexed": true,
          "internalType": "address",
          "name": "owner",
          "type": "address"
        },
        {
          "indexed": true,
          "internalType": "address",
          "name": "operator",
          "type": "address"
        },
        {
          "indexed": false,
          "internalType": "bool",
          "name": "approved",
          "type": "bool"
        }
      ],
      "name": "ApprovalForAll",
      "type": "event"
    },
    {
      "anonymous": false,
      "inputs": [
        {
          "indexed": false,
          "internalType": "uint256",
          "name": "_fromTokenId",
          "type": "uint256"
        },
        {
          "indexed": false,
          "internalType": "uint256",
          "name": "_toTokenId",
          "type": "uint256"
        }
      ],
      "name": "BatchMetadataUpdate",
      "type": "event"
    },
    {
      "anonymous": false,
      "inputs": [
        {
          "indexed": false,
          "internalType": "uint256",
          "name": "_tokenId",
          "type": "uint256"
        }
      ],
      "name": "MetadataUpdate",
      "type": "event"
    },
    {
      "anonymous": false,
      "inputs": [
        {
          "indexed": false,
          "internalType": "uint256",
          "name": "",
          "type": "uint256"
        }
      ],
      "name": "NFTMinted",
      "type": "event"
    },
    {
      "anonymous": false,
      "inputs": [
        {
          "indexed": true,
          "internalType": "address",
          "name": "from",
          "type": "address"
        },
        {
          "indexed": true,
          "internalType": "address",
          "name": "to",
          "type": "address"
        },
        {
          "indexed": true,
          "internalType": "uint256",
          "name": "tokenId",
          "type": "uint256"
        }
      ],
      "name": "Transfer",
      "type": "event"
    },
    {
      "inputs": [
        {
          "internalType": "address",
          "name": "to",
          "type": "address"
        },
        {
          "internalType": "uint256",
          "name": "tokenId",
          "type": "uint256"
        }
      ],
      "name": "approve",
      "outputs": [],
      "stateMutability": "nonpayable",
      "type": "function"
    },
    {
      "inputs": [
        {
          "internalType": "address",
          "name": "owner",
          "type": "address"
        }
      ],
      "name": "balanceOf",
      "outputs": [
        {
          "internalType": "uint256",
          "name": "",
          "type": "uint256"
        }
      ],
      "stateMutability": "view",
      "type": "function",
      "constant": true
    },
    {
      "inputs": [
        {
          "internalType": "uint256",
          "name": "tokenId",
          "type": "uint256"
        }
      ],
      "name": "getApproved",
      "outputs": [
        {
          "internalType": "address",
          "name": "",
          "type": "address"
        }
      ],
      "stateMutability": "view",
      "type": "function",
      "constant": true
    },
    {
      "inputs": [
        {
          "internalType": "address",
          "name": "owner",
          "type": "address"
        },
        {
          "internalType": "address",
          "name": "operator",
          "type": "address"
        }
      ],
      "name": "isApprovedForAll",
      "outputs": [
        {
          "internalType": "bool",
          "name": "",
          "type": "bool"
        }
      ],
      "stateMutability": "view",
      "type": "function",
      "constant": true
    },
    {
      "inputs": [],
      "name": "name",
      "outputs": [
        {
          "internalType": "string",
          "name": "",
          "type": "string"
        }
      ],
      "stateMutability": "view",
      "type": "function",
      "constant": true
    },
    {
      "inputs": [
        {
          "internalType": "uint256",
          "name": "tokenId",
          "type": "uint256"
        }
      ],
      "name": "ownerOf",
      "outputs": [
        {
          "internalType": "address",
          "name": "",
          "type": "address"
        }
      ],
      "stateMutability": "view",
      "type": "function",
      "constant": true
    },
    {
      "inputs": [
        {
          "internalType": "address",
          "name": "from",
          "type": "address"
        },
        {
          "internalType": "address",
          "name": "to",
          "type": "address"
        },
        {
          "internalType": "uint256",
          "name": "tokenId",
          "type": "uint256"
        }
      ],
      "name": "safeTransferFrom",
      "outputs": [],
      "stateMutability": "nonpayable",
      "type": "function"
    },
    {
      "inputs": [
        {
          "internalType": "address",
          "name": "from",
          "type": "address"
        },
        {
          "internalType": "address",
          "name": "to",
          "type": "address"
        },
        {
          "internalType": "uint256",
          "name": "tokenId",
          "type": "uint256"
        },
        {
          "internalType": "bytes",
          "name": "data",
          "type": "bytes"
        }
      ],
      "name": "safeTransferFrom",
      "outputs": [],
      "stateMutability": "nonpayable",
      "type": "function"
    },
    {
      "inputs": [
        {
          "internalType": "address",
          "name": "operator",
          "type": "address"
        },
        {
          "internalType": "bool",
          "name": "approved",
          "type": "bool"
        }
      ],
      "name": "setApprovalForAll",
      "outputs": [],
      "stateMutability": "nonpayable",
      "type": "function"
    },
    {
      "inputs": [
        {
          "internalType": "bytes4",
          "name": "interfaceId",
          "type": "bytes4"
        }
      ],
      "name": "supportsInterface",
      "outputs": [
        {
          "internalType": "bool",
          "name": "",
          "type": "bool"
        }
      ],
      "stateMutability": "view",
      "type": "function",
      "constant": true
    },
    {
      "inputs": [],
      "name": "symbol",
      "outputs": [
        {
          "internalType": "string",
          "name": "",
          "type": "string"
        }
      ],
      "stateMutability": "view",
      "type": "function",
      "constant": true
    },
    {
      "inputs": [
        {
          "internalType": "uint256",
          "name": "tokenId",
          "type": "uint256"
        }
      ],
      "name": "tokenURI",
      "outputs": [
        {
          "internalType": "string",
          "name": "",
          "type": "string"
        }
      ],
      "stateMutability": "view",
      "type": "function",
      "constant": true
    },
    {
      "inputs": [
        {
          "internalType": "address",
          "name": "from",
          "type": "address"
        },
        {
          "internalType": "address",
          "name": "to",
          "type": "address"
        },
        {
          "internalType": "uint256",
          "name": "tokenId",
          "type": "uint256"
        }
      ],
      "name": "transferFrom",
      "outputs": [],
      "stateMutability": "nonpayable",
      "type": "function"
    },
    {
      "inputs": [
        {
          "internalType": "string",
          "name": "_tokenURI",
          "type": "string"
        }
      ],
      "name": "mint",
      "outputs": [],
      "stateMutability": "nonpayable",
      "type": "function"
    },
    {
      "inputs": [],
      "name": "getMintedNFTs",
      "outputs": [
        {
          "internalType": "uint256",
          "name": "",
          "type": "uint256"
        }
      ],
      "stateMutability": "view",
      "type": "function",
      "constant": true
    }
  ],
  "bytecode": "0x60806040523480156200001157600080fd5b5060405162002cdc38038062002cdc833981810160405281019062000037919062000239565b6040518060400160405280601581526020017f426f726564205065747320596163687420436c756200000000000000000000008152506040518060400160405280600481526020017f42505943000000000000000000000000000000000000000000000000000000008152508160009080519060200190620000bb9291906200011f565b508060019080519060200190620000d49291906200011f565b50505080600860006101000a81548173ffffffffffffffffffffffffffffffffffffffff021916908373ffffffffffffffffffffffffffffffffffffffff16021790555050620002cf565b8280546200012d906200029a565b90600052602060002090601f0160209004810192826200015157600085556200019d565b82601f106200016c57805160ff19168380011785556200019d565b828001600101855582156200019d579182015b828111156200019c5782518255916020019190600101906200017f565b5b509050620001ac9190620001b0565b5090565b5b80821115620001cb576000816000905550600101620001b1565b5090565b600080fd5b600073ffffffffffffffffffffffffffffffffffffffff82169050919050565b60006200020182620001d4565b9050919050565b6200021381620001f4565b81146200021f57600080fd5b50565b600081519050620002338162000208565b92915050565b600060208284031215620002525762000251620001cf565b5b6000620002628482850162000222565b91505092915050565b7f4e487b7100000000000000000000000000000000000000000000000000000000600052602260045260246000fd5b60006002820490506001821680620002b357607f821691505b602082108103620002c957620002c86200026b565b5b50919050565b6129fd80620002df6000396000f3fe608060405234801561001057600080fd5b50600436106100f55760003560e01c806370a0823111610097578063b88d4fde11610066578063b88d4fde14610284578063c87b56dd146102a0578063d85d3d27146102d0578063e985e9c5146102ec576100f5565b806370a08231146101fc57806377bf44ea1461022c57806395d89b411461024a578063a22cb46514610268576100f5565b8063095ea7b3116100d3578063095ea7b31461017857806323b872dd1461019457806342842e0e146101b05780636352211e146101cc576100f5565b806301ffc9a7146100fa57806306fdde031461012a578063081812fc14610148575b600080fd5b610114600480360381019061010f9190611b74565b61031c565b6040516101219190611bbc565b60405180910390f35b61013261037d565b60405161013f9190611c70565b60405180910390f35b610162600480360381019061015d9190611cc8565b61040f565b60405161016f9190611d36565b60405180910390f35b610192600480360381019061018d9190611d7d565b610455565b005b6101ae60048036038101906101a99190611dbd565b61056c565b005b6101ca60048036038101906101c59190611dbd565b6105cc565b005b6101e660048036038101906101e19190611cc8565b6105ec565b6040516101f39190611d36565b60405180910390f35b61021660048036038101906102119190611e10565b610672565b6040516102239190611e4c565b60405180910390f35b610234610729565b6040516102419190611e4c565b60405180910390f35b61025261073a565b60405161025f9190611c70565b60405180910390f35b610282600480360381019061027d9190611e93565b6107cc565b005b61029e60048036038101906102999190612008565b6107e2565b005b6102ba60048036038101906102b59190611cc8565b610844565b6040516102c79190611c70565b60405180910390f35b6102ea60048036038101906102e5919061212c565b610956565b005b61030660048036038101906103019190612175565b6109ea565b6040516103139190611bbc565b60405180910390f35b6000634906490660e01b7bffffffffffffffffffffffffffffffffffffffffffffffffffffffff1916827bffffffffffffffffffffffffffffffffffffffffffffffffffffffff19161480610376575061037582610a7e565b5b9050919050565b60606000805461038c906121e4565b80601f01602080910402602001604051908101604052809291908181526020018280546103b8906121e4565b80156104055780601f106103da57610100808354040283529160200191610405565b820191906000526020600020905b8154815290600101906020018083116103e857829003601f168201915b5050505050905090565b600061041a82610b60565b6004600083815260200190815260200160002060009054906101000a900473ffffffffffffffffffffffffffffffffffffffff169050919050565b6000610460826105ec565b90508073ffffffffffffffffffffffffffffffffffffffff168373ffffffffffffffffffffffffffffffffffffffff16036104d0576040517f08c379a00000000000000000000000000000000000000000000000000000000081526004016104c790612287565b60405180910390fd5b8073ffffffffffffffffffffffffffffffffffffffff166104ef610bab565b73ffffffffffffffffffffffffffffffffffffffff16148061051e575061051d81610518610bab565b6109ea565b5b61055d576040517f08c379a000000000000000000000000000000000000000000000000000000000815260040161055490612319565b60405180910390fd5b6105678383610bb3565b505050565b61057d610577610bab565b82610c6c565b6105bc576040517f08c379a00000000000000000000000000000000000000000000000000000000081526004016105b3906123ab565b60405180910390fd5b6105c7838383610d01565b505050565b6105e7838383604051806020016040528060008152506107e2565b505050565b6000806105f883610ffa565b9050600073ffffffffffffffffffffffffffffffffffffffff168173ffffffffffffffffffffffffffffffffffffffff1603610669576040517f08c379a000000000000000000000000000000000000000000000000000000000815260040161066090612417565b60405180910390fd5b80915050919050565b60008073ffffffffffffffffffffffffffffffffffffffff168273ffffffffffffffffffffffffffffffffffffffff16036106e2576040517f08c379a00000000000000000000000000000000000000000000000000000000081526004016106d9906124a9565b60405180910390fd5b600360008373ffffffffffffffffffffffffffffffffffffffff1673ffffffffffffffffffffffffffffffffffffffff168152602001908152602001600020549050919050565b60006107356007611037565b905090565b606060018054610749906121e4565b80601f0160208091040260200160405190810160405280929190818152602001828054610775906121e4565b80156107c25780601f10610797576101008083540402835291602001916107c2565b820191906000526020600020905b8154815290600101906020018083116107a557829003601f168201915b5050505050905090565b6107de6107d7610bab565b8383611045565b5050565b6107f36107ed610bab565b83610c6c565b610832576040517f08c379a0000000000000000000000000000000000000000000000000000000008152600401610829906123ab565b60405180910390fd5b61083e848484846111b1565b50505050565b606061084f82610b60565b600060066000848152602001908152602001600020805461086f906121e4565b80601f016020809104026020016040519081016040528092919081815260200182805461089b906121e4565b80156108e85780601f106108bd576101008083540402835291602001916108e8565b820191906000526020600020905b8154815290600101906020018083116108cb57829003601f168201915b5050505050905060006108f961120d565b9050600081510361090e578192505050610951565b60008251111561094357808260405160200161092b929190612505565b60405160208183030381529060405292505050610951565b61094c84611224565b925050505b919050565b610960600761128c565b600061096c6007611037565b905061097833826112a2565b61098281836112c0565b6109af600860009054906101000a900473ffffffffffffffffffffffffffffffffffffffff1660016107cc565b7fd9dc24857f317ed9abbbb42e920ede0104231eb1d3d70236a74887ffaf159868816040516109de9190611e4c565b60405180910390a15050565b6000600560008473ffffffffffffffffffffffffffffffffffffffff1673ffffffffffffffffffffffffffffffffffffffff16815260200190815260200160002060008373ffffffffffffffffffffffffffffffffffffffff1673ffffffffffffffffffffffffffffffffffffffff16815260200190815260200160002060009054906101000a900460ff16905092915050565b60007f80ac58cd000000000000000000000000000000000000000000000000000000007bffffffffffffffffffffffffffffffffffffffffffffffffffffffff1916827bffffffffffffffffffffffffffffffffffffffffffffffffffffffff19161480610b4957507f5b5e139f000000000000000000000000000000000000000000000000000000007bffffffffffffffffffffffffffffffffffffffffffffffffffffffff1916827bffffffffffffffffffffffffffffffffffffffffffffffffffffffff1916145b80610b595750610b588261136b565b5b9050919050565b610b69816113d5565b610ba8576040517f08c379a0000000000000000000000000000000000000000000000000000000008152600401610b9f90612417565b60405180910390fd5b50565b600033905090565b816004600083815260200190815260200160002060006101000a81548173ffffffffffffffffffffffffffffffffffffffff021916908373ffffffffffffffffffffffffffffffffffffffff160217905550808273ffffffffffffffffffffffffffffffffffffffff16610c26836105ec565b73ffffffffffffffffffffffffffffffffffffffff167f8c5be1e5ebec7d5bd14f71427d1e84f3dd0314c0f7b2291e5b200ac8c7c3b92560405160405180910390a45050565b600080610c78836105ec565b90508073ffffffffffffffffffffffffffffffffffffffff168473ffffffffffffffffffffffffffffffffffffffff161480610cba5750610cb981856109ea565b5b80610cf857508373ffffffffffffffffffffffffffffffffffffffff16610ce08461040f565b73ffffffffffffffffffffffffffffffffffffffff16145b91505092915050565b8273ffffffffffffffffffffffffffffffffffffffff16610d21826105ec565b73ffffffffffffffffffffffffffffffffffffffff1614610d77576040517f08c379a0000000000000000000000000000000000000000000000000000000008152600401610d6e9061259b565b60405180910390fd5b600073ffffffffffffffffffffffffffffffffffffffff168273ffffffffffffffffffffffffffffffffffffffff1603610de6576040517f08c379a0000000000000000000000000000000000000000000000000000000008152600401610ddd9061262d565b60405180910390fd5b610df38383836001611416565b8273ffffffffffffffffffffffffffffffffffffffff16610e13826105ec565b73ffffffffffffffffffffffffffffffffffffffff1614610e69576040517f08c379a0000000000000000000000000000000000000000000000000000000008152600401610e609061259b565b60405180910390fd5b6004600082815260200190815260200160002060006101000a81549073ffffffffffffffffffffffffffffffffffffffff02191690556001600360008573ffffffffffffffffffffffffffffffffffffffff1673ffffffffffffffffffffffffffffffffffffffff168152602001908152602001600020600082825403925050819055506001600360008473ffffffffffffffffffffffffffffffffffffffff1673ffffffffffffffffffffffffffffffffffffffff16815260200190815260200160002060008282540192505081905550816002600083815260200190815260200160002060006101000a81548173ffffffffffffffffffffffffffffffffffffffff021916908373ffffffffffffffffffffffffffffffffffffffff160217905550808273ffffffffffffffffffffffffffffffffffffffff168473ffffffffffffffffffffffffffffffffffffffff167fddf252ad1be2c89b69c2b068fc378daa952ba7f163c4a11628f55a4df523b3ef60405160405180910390a4610ff5838383600161141c565b505050565b60006002600083815260200190815260200160002060009054906101000a900473ffffffffffffffffffffffffffffffffffffffff169050919050565b600081600001549050919050565b8173ffffffffffffffffffffffffffffffffffffffff168373ffffffffffffffffffffffffffffffffffffffff16036110b3576040517f08c379a00000000000000000000000000000000000000000000000000000000081526004016110aa90612699565b60405180910390fd5b80600560008573ffffffffffffffffffffffffffffffffffffffff1673ffffffffffffffffffffffffffffffffffffffff16815260200190815260200160002060008473ffffffffffffffffffffffffffffffffffffffff1673ffffffffffffffffffffffffffffffffffffffff16815260200190815260200160002060006101000a81548160ff0219169083151502179055508173ffffffffffffffffffffffffffffffffffffffff168373ffffffffffffffffffffffffffffffffffffffff167f17307eab39ab6107e8899845ad3d59bd9653f200f220920489ca2b5937696c31836040516111a49190611bbc565b60405180910390a3505050565b6111bc848484610d01565b6111c884848484611422565b611207576040517f08c379a00000000000000000000000000000000000000000000000000000000081526004016111fe9061272b565b60405180910390fd5b50505050565b606060405180602001604052806000815250905090565b606061122f82610b60565b600061123961120d565b905060008151116112595760405180602001604052806000815250611284565b80611263846115a9565b604051602001611274929190612505565b6040516020818303038152906040525b915050919050565b6001816000016000828254019250508190555050565b6112bc828260405180602001604052806000815250611677565b5050565b6112c9826113d5565b611308576040517f08c379a00000000000000000000000000000000000000000000000000000000081526004016112ff906127bd565b60405180910390fd5b8060066000848152602001908152602001600020908051906020019061132f929190611a65565b507ff8e1a15aba9398e019f0b49df1a4fde98ee17ae345cb5f6b5e2c27f5033e8ce78260405161135f9190611e4c565b60405180910390a15050565b60007f01ffc9a7000000000000000000000000000000000000000000000000000000007bffffffffffffffffffffffffffffffffffffffffffffffffffffffff1916827bffffffffffffffffffffffffffffffffffffffffffffffffffffffff1916149050919050565b60008073ffffffffffffffffffffffffffffffffffffffff166113f783610ffa565b73ffffffffffffffffffffffffffffffffffffffff1614159050919050565b50505050565b50505050565b60006114438473ffffffffffffffffffffffffffffffffffffffff166116d2565b1561159c578373ffffffffffffffffffffffffffffffffffffffff1663150b7a0261146c610bab565b8786866040518563ffffffff1660e01b815260040161148e9493929190612832565b6020604051808303816000875af19250505080156114ca57506040513d601f19601f820116820180604052508101906114c79190612893565b60015b61154c573d80600081146114fa576040519150601f19603f3d011682016040523d82523d6000602084013e6114ff565b606091505b506000815103611544576040517f08c379a000000000000000000000000000000000000000000000000000000000815260040161153b9061272b565b60405180910390fd5b805181602001fd5b63150b7a0260e01b7bffffffffffffffffffffffffffffffffffffffffffffffffffffffff1916817bffffffffffffffffffffffffffffffffffffffffffffffffffffffff1916149150506115a1565b600190505b949350505050565b6060600060016115b8846116f5565b01905060008167ffffffffffffffff8111156115d7576115d6611edd565b5b6040519080825280601f01601f1916602001820160405280156116095781602001600182028036833780820191505090505b509050600082602001820190505b60011561166c578080600190039150507f3031323334353637383961626364656600000000000000000000000000000000600a86061a8153600a85816116605761165f6128c0565b5b04945060008503611617575b819350505050919050565b6116818383611848565b61168e6000848484611422565b6116cd576040517f08c379a00000000000000000000000000000000000000000000000000000000081526004016116c49061272b565b60405180910390fd5b505050565b6000808273ffffffffffffffffffffffffffffffffffffffff163b119050919050565b600080600090507a184f03e93ff9f4daa797ed6e38ed64bf6a1f0100000000000000008310611753577a184f03e93ff9f4daa797ed6e38ed64bf6a1f0100000000000000008381611749576117486128c0565b5b0492506040810190505b6d04ee2d6d415b85acef81000000008310611790576d04ee2d6d415b85acef81000000008381611786576117856128c0565b5b0492506020810190505b662386f26fc1000083106117bf57662386f26fc1000083816117b5576117b46128c0565b5b0492506010810190505b6305f5e10083106117e8576305f5e10083816117de576117dd6128c0565b5b0492506008810190505b612710831061180d576127108381611803576118026128c0565b5b0492506004810190505b606483106118305760648381611826576118256128c0565b5b0492506002810190505b600a831061183f576001810190505b80915050919050565b600073ffffffffffffffffffffffffffffffffffffffff168273ffffffffffffffffffffffffffffffffffffffff16036118b7576040517f08c379a00000000000000000000000000000000000000000000000000000000081526004016118ae9061293b565b60405180910390fd5b6118c0816113d5565b15611900576040517f08c379a00000000000000000000000000000000000000000000000000000000081526004016118f7906129a7565b60405180910390fd5b61190e600083836001611416565b611917816113d5565b15611957576040517f08c379a000000000000000000000000000000000000000000000000000000000815260040161194e906129a7565b60405180910390fd5b6001600360008473ffffffffffffffffffffffffffffffffffffffff1673ffffffffffffffffffffffffffffffffffffffff16815260200190815260200160002060008282540192505081905550816002600083815260200190815260200160002060006101000a81548173ffffffffffffffffffffffffffffffffffffffff021916908373ffffffffffffffffffffffffffffffffffffffff160217905550808273ffffffffffffffffffffffffffffffffffffffff16600073ffffffffffffffffffffffffffffffffffffffff167fddf252ad1be2c89b69c2b068fc378daa952ba7f163c4a11628f55a4df523b3ef60405160405180910390a4611a6160008383600161141c565b5050565b828054611a71906121e4565b90600052602060002090601f016020900481019282611a935760008555611ada565b82601f10611aac57805160ff1916838001178555611ada565b82800160010185558215611ada579182015b82811115611ad9578251825591602001919060010190611abe565b5b509050611ae79190611aeb565b5090565b5b80821115611b04576000816000905550600101611aec565b5090565b6000604051905090565b600080fd5b600080fd5b60007fffffffff0000000000000000000000000000000000000000000000000000000082169050919050565b611b5181611b1c565b8114611b5c57600080fd5b50565b600081359050611b6e81611b48565b92915050565b600060208284031215611b8a57611b89611b12565b5b6000611b9884828501611b5f565b91505092915050565b60008115159050919050565b611bb681611ba1565b82525050565b6000602082019050611bd16000830184611bad565b92915050565b600081519050919050565b600082825260208201905092915050565b60005b83811015611c11578082015181840152602081019050611bf6565b83811115611c20576000848401525b50505050565b6000601f19601f8301169050919050565b6000611c4282611bd7565b611c4c8185611be2565b9350611c5c818560208601611bf3565b611c6581611c26565b840191505092915050565b60006020820190508181036000830152611c8a8184611c37565b905092915050565b6000819050919050565b611ca581611c92565b8114611cb057600080fd5b50565b600081359050611cc281611c9c565b92915050565b600060208284031215611cde57611cdd611b12565b5b6000611cec84828501611cb3565b91505092915050565b600073ffffffffffffffffffffffffffffffffffffffff82169050919050565b6000611d2082611cf5565b9050919050565b611d3081611d15565b82525050565b6000602082019050611d4b6000830184611d27565b92915050565b611d5a81611d15565b8114611d6557600080fd5b50565b600081359050611d7781611d51565b92915050565b60008060408385031215611d9457611d93611b12565b5b6000611da285828601611d68565b9250506020611db385828601611cb3565b9150509250929050565b600080600060608486031215611dd657611dd5611b12565b5b6000611de486828701611d68565b9350506020611df586828701611d68565b9250506040611e0686828701611cb3565b9150509250925092565b600060208284031215611e2657611e25611b12565b5b6000611e3484828501611d68565b91505092915050565b611e4681611c92565b82525050565b6000602082019050611e616000830184611e3d565b92915050565b611e7081611ba1565b8114611e7b57600080fd5b50565b600081359050611e8d81611e67565b92915050565b60008060408385031215611eaa57611ea9611b12565b5b6000611eb885828601611d68565b9250506020611ec985828601611e7e565b9150509250929050565b600080fd5b600080fd5b7f4e487b7100000000000000000000000000000000000000000000000000000000600052604160045260246000fd5b611f1582611c26565b810181811067ffffffffffffffff82111715611f3457611f33611edd565b5b80604052505050565b6000611f47611b08565b9050611f538282611f0c565b919050565b600067ffffffffffffffff821115611f7357611f72611edd565b5b611f7c82611c26565b9050602081019050919050565b82818337600083830152505050565b6000611fab611fa684611f58565b611f3d565b905082815260208101848484011115611fc757611fc6611ed8565b5b611fd2848285611f89565b509392505050565b600082601f830112611fef57611fee611ed3565b5b8135611fff848260208601611f98565b91505092915050565b6000806000806080858703121561202257612021611b12565b5b600061203087828801611d68565b945050602061204187828801611d68565b935050604061205287828801611cb3565b925050606085013567ffffffffffffffff81111561207357612072611b17565b5b61207f87828801611fda565b91505092959194509250565b600067ffffffffffffffff8211156120a6576120a5611edd565b5b6120af82611c26565b9050602081019050919050565b60006120cf6120ca8461208b565b611f3d565b9050828152602081018484840111156120eb576120ea611ed8565b5b6120f6848285611f89565b509392505050565b600082601f83011261211357612112611ed3565b5b81356121238482602086016120bc565b91505092915050565b60006020828403121561214257612141611b12565b5b600082013567ffffffffffffffff8111156121605761215f611b17565b5b61216c848285016120fe565b91505092915050565b6000806040838503121561218c5761218b611b12565b5b600061219a85828601611d68565b92505060206121ab85828601611d68565b9150509250929050565b7f4e487b7100000000000000000000000000000000000000000000000000000000600052602260045260246000fd5b600060028204905060018216806121fc57607f821691505b60208210810361220f5761220e6121b5565b5b50919050565b7f4552433732313a20617070726f76616c20746f2063757272656e74206f776e6560008201527f7200000000000000000000000000000000000000000000000000000000000000602082015250565b6000612271602183611be2565b915061227c82612215565b604082019050919050565b600060208201905081810360008301526122a081612264565b9050919050565b7f4552433732313a20617070726f76652063616c6c6572206973206e6f7420746f60008201527f6b656e206f776e6572206f7220617070726f76656420666f7220616c6c000000602082015250565b6000612303603d83611be2565b915061230e826122a7565b604082019050919050565b60006020820190508181036000830152612332816122f6565b9050919050565b7f4552433732313a2063616c6c6572206973206e6f7420746f6b656e206f776e6560008201527f72206f7220617070726f76656400000000000000000000000000000000000000602082015250565b6000612395602d83611be2565b91506123a082612339565b604082019050919050565b600060208201905081810360008301526123c481612388565b9050919050565b7f4552433732313a20696e76616c696420746f6b656e2049440000000000000000600082015250565b6000612401601883611be2565b915061240c826123cb565b602082019050919050565b60006020820190508181036000830152612430816123f4565b9050919050565b7f4552433732313a2061646472657373207a65726f206973206e6f74206120766160008201527f6c6964206f776e65720000000000000000000000000000000000000000000000602082015250565b6000612493602983611be2565b915061249e82612437565b604082019050919050565b600060208201905081810360008301526124c281612486565b9050919050565b600081905092915050565b60006124df82611bd7565b6124e981856124c9565b93506124f9818560208601611bf3565b80840191505092915050565b600061251182856124d4565b915061251d82846124d4565b91508190509392505050565b7f4552433732313a207472616e736665722066726f6d20696e636f72726563742060008201527f6f776e6572000000000000000000000000000000000000000000000000000000602082015250565b6000612585602583611be2565b915061259082612529565b604082019050919050565b600060208201905081810360008301526125b481612578565b9050919050565b7f4552433732313a207472616e7366657220746f20746865207a65726f2061646460008201527f7265737300000000000000000000000000000000000000000000000000000000602082015250565b6000612617602483611be2565b9150612622826125bb565b604082019050919050565b600060208201905081810360008301526126468161260a565b9050919050565b7f4552433732313a20617070726f766520746f2063616c6c657200000000000000600082015250565b6000612683601983611be2565b915061268e8261264d565b602082019050919050565b600060208201905081810360008301526126b281612676565b9050919050565b7f4552433732313a207472616e7366657220746f206e6f6e20455243373231526560008201527f63656976657220696d706c656d656e7465720000000000000000000000000000602082015250565b6000612715603283611be2565b9150612720826126b9565b604082019050919050565b6000602082019050818103600083015261274481612708565b9050919050565b7f45524337323155524953746f726167653a2055524920736574206f66206e6f6e60008201527f6578697374656e7420746f6b656e000000000000000000000000000000000000602082015250565b60006127a7602e83611be2565b91506127b28261274b565b604082019050919050565b600060208201905081810360008301526127d68161279a565b9050919050565b600081519050919050565b600082825260208201905092915050565b6000612804826127dd565b61280e81856127e8565b935061281e818560208601611bf3565b61282781611c26565b840191505092915050565b60006080820190506128476000830187611d27565b6128546020830186611d27565b6128616040830185611e3d565b818103606083015261287381846127f9565b905095945050505050565b60008151905061288d81611b48565b92915050565b6000602082840312156128a9576128a8611b12565b5b60006128b78482850161287e565b91505092915050565b7f4e487b7100000000000000000000000000000000000000000000000000000000600052601260045260246000fd5b7f4552433732313a206d696e7420746f20746865207a65726f2061646472657373600082015250565b6000612925602083611be2565b9150612930826128ef565b602082019050919050565b6000602082019050818103600083015261295481612918565b9050919050565b7f4552433732313a20746f6b656e20616c7265616479206d696e74656400000000600082015250565b6000612991601c83611be2565b915061299c8261295b565b602082019050919050565b600060208201905081810360008301526129c081612984565b905091905056fea2646970667358221220e1c88d13fe3819da7c1d1fc7352a787aca2266c959694f845dfc474e7735ba3864736f6c634300080d0033",
  "immutableReferences": {},
  "source": "// SPDX-License-Identifier: MIT\npragma solidity ^0.8.13;\n\nimport \"@openzeppelin/contracts/token/ERC721/ERC721.sol\";\nimport \"@openzeppelin/contracts/token/ERC721/extensions/ERC721URIStorage.sol\";\nimport \"@openzeppelin/contracts/utils/Counters.sol\";\n\ncontract BoredPetsNFT is ERC721URIStorage {\n  using Counters for Counters.Counter;\n  Counters.Counter tokenIds;\n  address marketplaceContract;\n  event NFTMinted(uint256);\n\n  constructor(address _marketplaceContract) ERC721(\"Bored Pets Yacht Club\", \"BPYC\") {\n    marketplaceContract = _marketplaceContract;\n  }\n\n  function mint(string memory _tokenURI) public {\n    tokenIds.increment();\n    uint256 newTokenId = tokenIds.current();\n    _safeMint(msg.sender, newTokenId);\n    _setTokenURI(newTokenId, _tokenURI);\n    setApprovalForAll(marketplaceContract, true);\n    emit NFTMinted(newTokenId);\n  }\n\n  function getMintedNFTs() public view returns (uint256)  {\n    return tokenIds.current();\n  }\n}\n",
  "sourcePath": "/Users/huizhao/development/nft-marketplace/contracts/optimism/BoredPetsNFT.sol",
  "compiler": {
    "name": "solc",
    "version": "0.8.13+commit.abaa5c0e.Emscripten.clang"
  },
  "schemaVersion": "3.4.7",
  "updatedAt": "2023-07-10T13:47:03.056Z",
  "networkType": "ethereum",
  "devdoc": {
    "kind": "dev",
    "methods": {
      "approve(address,uint256)": {
        "details": "See {IERC721-approve}."
      },
      "balanceOf(address)": {
        "details": "See {IERC721-balanceOf}."
      },
      "getApproved(uint256)": {
        "details": "See {IERC721-getApproved}."
      },
      "isApprovedForAll(address,address)": {
        "details": "See {IERC721-isApprovedForAll}."
      },
      "name()": {
        "details": "See {IERC721Metadata-name}."
      },
      "ownerOf(uint256)": {
        "details": "See {IERC721-ownerOf}."
      },
      "safeTransferFrom(address,address,uint256)": {
        "details": "See {IERC721-safeTransferFrom}."
      },
      "safeTransferFrom(address,address,uint256,bytes)": {
        "details": "See {IERC721-safeTransferFrom}."
      },
      "setApprovalForAll(address,bool)": {
        "details": "See {IERC721-setApprovalForAll}."
      },
      "supportsInterface(bytes4)": {
        "details": "See {IERC165-supportsInterface}"
      },
      "symbol()": {
        "details": "See {IERC721Metadata-symbol}."
      },
      "tokenURI(uint256)": {
        "details": "See {IERC721Metadata-tokenURI}."
      },
      "transferFrom(address,address,uint256)": {
        "details": "See {IERC721-transferFrom}."
      }
    },
    "version": 1
  },
  "userdoc": {
    "kind": "user",
    "methods": {},
    "version": 1
  }
}